:020000041000EA
:1000000000B5324B212058609868022188439860DF
:10001000D860186158612E4B002199600221596106
:100020000121F02299502B49196001219960352056
:1000300000F044F80222904214D00621196600F024
:1000400034F8196E01211966002018661A6600F04E
:100050002CF8196E196E196E052000F02FF8012189
:100060000842F9D1002199601B49196000215960AB
:100070001A491B48016001219960EB211966A021F2
:10008000196600F012F800219960164914480160C1
:100090000121996001BC002800D000471248134993
:1000A000086003C880F30888084703B5996A0420EC
:1000B0000142FBD001200142F8D103BD02B5186610
:1000C0001866FFF7F2FF186E186E02BD00000240BE
:1000D000000000180000070000035F00212200005C
:1000E000F4000018222000A00001001008ED00E03C
:1000F00000000000000000000000000074B24E7A12
:1001000000200420F7010010C3010010C5010010F9
:10011000C1010010C1010010C1010010C101001097
:10012000C1010010C1010010C1010010C701001081
:10013000C1010010C1010010C9010010CB01001065
:10014000CD010010CD010010CD010010CD01001037
:10015000CD010010CD010010CD010010CD01001027
:10016000CD010010CD010010CD010010CD01001017
:10017000CD010010CD010010CD010010CD01001007
:10018000CD010010CD010010CD010010CD010010F7
:10019000CD010010CD010010CD010010CD010010E7
:1001A000CD010010CD010010CD010010CD010010D7
:1001B000CD010010CD010010CD010010CD010010C7
:1001C00000BE00BE00BE00BE00BE00BEEFF3058054
:1001D000103800BEF2EB8871F0BD091010BE091096
:1001E0003402001090A31AE700201F49086006C8D7
:1001F00081F3088810471D48006800282FD10DA4FE
:100200000ECC002902D000F012F8F9E71849194A7B
:10021000002000E001C19142FCD1174988471749ED
:1002200088471749884700BEFDE701C901C29A42C5
:10023000FBD3704710BE0910C0000020582D0020CD
:10024000A8EA09100000042000000420A8EA091010
:10025000001004200010042000000000704709482E
:1002600002F01CF90047000008ED00E0000000D09B
:10027000782D0020F80B0120514B011009160010B9
:10028000854C01105756000006005250ABB3605326
:100290006009091006005250861C030270090910FB
:1002A000060052505422A29D7C09091005005250AC
:1002B000DE65F468A8EA0910F8B5C0460448054BA5
:1002C00010B5834203D0044B002B00D0984710BDDB
:1002D000582D0020582D0020000000000648074936
:1002E000091A8B10C90FC91810B5491003D0044B57
:1002F000002B00D0984710BD582D0020582D00200D
:100300000000000010B5074C2378002B09D1FFF73F
:10031000D5FF054B002B02D0044800E000BF0123AD
:10032000237010BD38300020000000000871051057
:10033000054B10B5002B03D00449054800E000BF71
:10034000FFF7CCFF10BDC046000000003C3000208D
:100350000871051070B505000E0082B000291DD08F
:10036000541A01940F2C0CD803681800012C1AD1D0
:100370000A781A702B680021019A6A60995402B0B9
:1003800070BD002201A93CF0C9FC019B2860AB6054
:100390002200310016F0CCFC2B68ECE7002A05D1D6
:1003A00003680192E7E7002CE5D0F1E7014830F05F
:1003B000F1FDC04608710510F0B5DE4657464E46C1
:1003C0004546E0B5CBB002AFFB6053681600FB6258
:1003D00013896A460733DB08DB00D31A9D4602AB5C
:1003E00083463B61302020231B18DC1918331B186F
:1003F000D81930F043FF0025B8233020B14AE0215E
:10040000E5500433E552A264002300220918C919FB
:100410000A604B60E8210918C9190A604B60AA4AB2
:100420000C21936849429C4661448946924609687A
:10043000D2683B657A6262504A4665601268002164
:10044000A018BB6230F0A0FE524613690C229C46F5
:100450005242624490461268282130209446524607
:10046000A3603B620B185269D819604402600021F6
:10047000FA6130F089FE52460C20526840428446B0
:10048000BA615246B969926961448A4609687A61DB
:1004900062508E4A30213A652832A2648B4A256127
:1004A0001432A2608A4A6561E26048225318D81962
:1004B000A561E561256265621EF088FF854A3021ED
:1004C0001823E2605822E3625318DA1922630022EB
:1004D0000800503BE2542C325318D9190C331B1826
:1004E000D819656330F050FE5B4634220133FF3388
:1004F0001800B918BB6156F06FFD002842D13000DA
:1005000005F0B2F8714B30223B652833A3646F4B82
:10051000206B1433A3606F4BE36058239B18DB19E7
:10052000984203D0A36B591C16F018FC684B302579
:10053000E36048235B19D8191EF032F953467A69F3
:100540001B68F969E2503B6A2822A36043465219AE
:100550001B68D219D150BB6A7A6A3B654B461B684F
:10056000E25000236360574BA36468235B19D819DA
:1005700030F0C2FEBD4649B0F0BCBB46B246A9460B
:10058000A046F0BD302110235A18D2194020BA637A
:1005900000223818FD63027024325A44BA6058466B
:1005A0005A4600955B18D26CDB19002148303CF0AC
:1005B0005DFD5A46526C0023920701D05B46DB6C0E
:1005C00059460022B868896C3CF0ACF81023302200
:1005D000B86B9B18DB19984204D03B6C591CBB606C
:1005E00016F0BCFB58460021603030F07FFD202221
:1005F000738900255A44002B2DD05B46BB604B46C7
:100600009146B3463E697B603822FB6AB9185B5D50
:10061000373A73550B70082330215818C119283305
:100620001038C018C0193BF07DF83822735DBA1835
:100630001370302108235B18D919012248463BF07A
:1006400071F85B465B890135AB42DDDCBB685E4619
:100650009B467B689946204D1622204928003BF096
:1006600061F804221E4928003BF05CF8F8680FF09E
:10067000B1F8F86200281AD04CF034F9F96A020097
:1006800028003BF04FF80722164928003BF04AF8B3
:1006900038694CF027F93969020028003BF042F82C
:1006A00001235A46B869137056F02EFC27E7012142
:1006B0002B680C3B186828184369194330F016FD65
:1006C000E1E7C046583309105C3E0910903E09101E
:1006D000E43F0910D83C0910404400203471051053
:1006E0004C71051054710510F0B5DE4657464E4664
:1006F00045460024E0B5DDB006AB049304AB1C72A4
:100700000AAB98460CAB0A9343465C601C7210AB74
:10071000994612AB10934B4606005C601C72022295
:100720000D0004A905941DF09FFE032241463000F0
:100730001DF09AFE0422494630001DF095FE00226D
:1007400004A91CA81BF010FB3AA830F097FDAC4B95
:1007500094223A93B42304A98918CC5004A9891887
:100760000433CC5204A989180433CC5004A9891845
:100770000433CC5004A989180433CC5004A9891837
:100780000433CC509F4B29A859689B68299102914A
:100790000C390F00019304AB09689B18019A5A5059
:1007A0002A943B6800219C46604430F0EDFC964B57
:1007B00032A829939B4614333A93944B2C942B9351
:1007C0002D942E942F94309431941EF0FFFD904B75
:1007D00036AA2B931C9B92461D9E3394039334920E
:1007E000002B00D1DCE022960F2E00D9B4E0012EC0
:1007F00000D0F8E094201A78342304A90918CA54C8
:10080000534622AC002235969A5508233393349BE5
:100810002BA80393039900233BF084FF2BA93AA84C
:1008200030F0B2FC0422210029A830F049FF63789F
:1008300026781B043606F618A37834981B02F6189F
:10084000E378F6185B46299314333A93704B2B9355
:10085000504504D0369B591C039316F07FFA6B4B1E
:1008600032A82B931DF09CFF9421029B04AA29938C
:1008700052183B6801993AA8D15000232A93604B43
:100880003A9330F039FD1C981EAB984203D01E9964
:10089000013116F063FA0022414616A81BF064FAF3
:1008A000169B25AF22969A46179E6760002B00D1B3
:1008B00071E029960F2E5FD8012E00D09AE01B78A8
:1008C00023733A000023A6609355169818AB9842FC
:1008D00003D01899013116F041FA229B68682B6009
:1008E0006368BB4262D02A000C3290426DD06B60CC
:1008F000A368EA68AB60259BEB6000286AD0606063
:10090000E2600023A36003706068B84203D0E1682E
:10091000013116F023FA109812AB984204D04B46DE
:100920009968013116F01AFA0A980CAB984204D073
:1009300043469968013116F011FA049806AB9842C3
:1009400003D00699013116F009FA5DB0F0BCBB4640
:10095000B246A946A046F0BD22AC0022210034A830
:100960003CF0DCF9229B349036933200039916F068
:10097000DFF9229E349B45E7002229A923A83CF0F9
:10098000CDF9299B6060E3603200514616F0D0F942
:10099000299E626896E7002E93D01E4830F0FAFA3E
:1009A000130022AC002E00D12CE7F6E7A268002A43
:1009B00006D0012A12D0390016F0BAF9A268686888
:1009C0000023AA60835460689BE76B60A368AB60F8
:1009D000259BEB60676025AF380092E7237B0370AF
:1009E000A2686868ECE7130022AC002E00D109E78A
:1009F0001000BAE73A00002E00D163E73800C3E7E1
:100A000058330910383D0910543D0910E43F0910CE
:100A1000D83C09100871051010B518F0CBFC1F2147
:100A20001C2001F0DBFE002200211C2001F0EEFE64
:100A300000211C2001F072FF054B1A6880239B01E6
:100A40005340E022D2011340024A136010BDC04659
:100A500000C0044000D0044070B5002201210F20E6
:100A600001F0D4FE002201210E2001F0CFFE05216D
:100A70000F2001F0B3FE05210E2001F0AFFED025BE
:100A80008026802310242D06DB0136026E626B6205
:100A90006B610A2000216E6102F0CAFF013C0A204E
:100AA0000021AE6102F0C4FF002CF2D18024E401E9
:100AB000AC610A20002102F0BBFF6E610A20002118
:100AC00002F0B6FF6C610A20002102F0B1FF064976
:100AD000064818F0EDFC03210F2001F07FFE0321F2
:100AE0000E2001F07BFE70BDA08601005822002080
:100AF00070B5030004000C3002C3606016685568CE
:100B000082B0002E1BD001950F2D09D8012D1BD1CD
:100B1000337823730023A5604355200002B070BDD5
:100B20001800002201A93CF0F9F8019B6060E36025
:100B30002A00310016F0FCF8019D6068EAE7002DFC
:100B4000E8D0034830F026FA002DE3D0F0E7C046A5
:100B500008710510F0B5DE4657464E464546E0B5ED
:100B60000B68BFB080461CA899460F0030F086FB8A
:100B70006A4B202500241C93B02304AA5219D45098
:100B800000239B46B42304AA5219D4520022002306
:100B90003A923B933C923D93614B0C215A684942F7
:100BA000944661440C9203920A689B6894460CA890
:100BB000604403608A460021049330F0E5FA594E00
:100BC00014A8330014331C93574B0C960D930E94BA
:100BD0000F9410941194129413941EF0F7FB534B3E
:100BE00059460D931023159318AB1693302304AA7E
:100BF000521917941CA8D1540DA930F0C5FA4B46D0
:100C000006AD1B162B704B461B146B704B461B120C
:100C1000AB704B460422EB7029000CA83AF018FD8B
:100C200008AB069399465B462B72129B6C60002BB7
:100C30006ED0109A93425AD8119B0021D21A00927A
:100C40002800002205933CF011FA384B16980C96B8
:100C50000D93143618AB1C96984204D0189B591C5F
:100C6000059316F07BF8304B14A80D931DF098FDFA
:100C7000039B20210C93534604AA1B685218049925
:100C80001CA8D150254B0EAE1C9330F035FBBA6832
:100C9000796828003CF0AEFA07000C960368083724
:100CA0000400BB422ED00C9383680E9363684046C9
:100CB0000D9300231E492760636023720CAA1CF069
:100CC000B1FA0C98B04203D00E99013116F046F8F3
:100CD0000698484503D0A968013116F03FF8404610
:100CE0003FB0F0BCBB46B246A946A046F0BD119A43
:100CF00000219B1A059200932800130000223CF06B
:100D0000B5F9A2E710223900300016F011F8CDE74E
:100D1000280016A93CF044F897E7C046583309105C
:100D2000983D0910B43D0910E43F0910D83C091062
:100D3000782D0020F0B5DE4657464E464546E0B5D4
:100D400058250123CDB004AA521913700F000122B7
:100D50001AA93AF0E7FC3B6802902AA8984630F0BE
:100D60008DFA844B00242A93B02304AA5219D4503C
:100D700000239B46B42304AA5219D4520022002314
:100D8000489249934A924B937B4B0C215A684942B3
:100D9000944661441A9203920A689B6894461AA882
:100DA000604403608A460021049330F0EDF9734EED
:100DB00022A8330014332A93714B1A961B931C9468
:100DC0001D941E941F94209421941EF0FFFA6D4BE5
:100DD00059461B931023239326AB2493302304AA54
:100DE000521925942AA8D1541BA930F0CDF94346B5
:100DF00014AD1B162B7043461B146B7043461B121D
:100E0000AB7043460422EB7029001AA83AF020FC8C
:100E100008AB98460AAB99465A46089343465C602D
:100E20001A72209B002B00D19EE01E9A934200D99B
:100E30008FE01F9B0021D21A0092404600220593AA
:100E40003CF014F94F4B24981A961B93143626AB9A
:100E50002A96984204D0269B591C059315F07EFFD4
:100E6000474B22A81B931DF09BFC039B58241A930D
:100E7000534604991B6804AA1219D1503D4B2AA865
:100E80002A9330F039FA002241460EA81AF020FBCE
:100E90000F9B0E991A00029803933AF043FC022329
:100EA00004AA121913701AA901223AF03BFC260079
:100EB000040000222800391D1AF00AFB20006A688D
:100EC00014993AF02FFC032304AA921913701AA95B
:100ED00001223AF027FC040039001AA8FFF73AFE75
:100EE0001B9B20001A001A9902933AF01BFC04ABDA
:100EF0009C460F210423614401220B703AF012FC3E
:100F000004001A981CAB984203D01C99013115F0CB
:100F100025FF149816AB984203D0A968013115F04B
:100F20001DFF0E9810AB984203D01099013115F0B7
:100F300015FF0898484504D043469968013115F0DB
:100F40000DFF20004DB0F0BCBB46B246A946A046FE
:100F5000F0BD1F9A00219B1A059200934046130092
:100F600000223CF083F86DE7404624A93BF018FFCF
:100F700068E7C04658330910983D0910B43D091080
:100F8000E43F0910D83C0910F8B51823DE469B460B
:100F9000483357469A464E46454604008244E0B5DB
:100FA000834450460F00904630F068F9564B0025B8
:100FB0002366D023E55000239946D4235A46E552B0
:100FC0000433E5500433514EE5500433E550043307
:100FD000E550B368F068A3610C3B19685050E561B7
:100FE00018680021584430F0CFF8200033692030D1
:100FF00023620C3B1B680021C0187369036030F04A
:10100000C3F85A467368B1690C3B1B682000D15085
:101010003F4BA5621A00A361143323623D4B283273
:1010200022666362E56225636563A563E56340301C
:101030001EF0CCF9384B260063621823636423004A
:1010400050334A46A3645023243650463100E564A9
:10105000E25430F099F823002100E822F031E8331F
:10106000A1504A465D60F023E25409F0C1F8606087
:1010700009F0BEF8294B2500636143460C35290071
:10108000143EA06018680EF0E1FA310038680EF0E6
:10109000DDFA30000EF09EFB21490200214816F0D7
:1010A00013F928000EF096FB1F4902001F4816F0A6
:1010B0000BF91F4D152228001E493AF033FB28007A
:1010C0001D493AF025FD1D4E012231003AF02AFB60
:1010D000152228001A493AF025FB280019493AF050
:1010E00017FD310001223AF01DFB174B601C1B68F5
:1010F000FF305B68E36001F03FFF2000F0BCBB46BF
:10110000B246A946A046F8BD583309105C3E091006
:10111000903E0910E43F0910D83C0910AC260F2777
:101120005C7105106C7105108471051094710510C7
:1011300040440020AC7105100F27000094030910F3
:10114000C4710510AC2600005CFA0020010010B547
:101150000400828A0C31406808F074FE2200606846
:10116000014909F021F810BDB9030010F0B5DE46C1
:1011700057464E464546E0B50025CDB014AB129318
:1011800008C911AF099012A811933D73BD603BF0DF
:1011900007FEA022F6219200FF31362004F002F96A
:1011A000F62243680021FF3280461800029315F0B2
:1011B000B9FD2AA830F062F87D4B18ACA364B823BF
:1011C000E5500433E552002200237A4E48924993B9
:1011D0004A924B93B3680C219C4649426144F268A1
:1011E000189303930B688946E25065600B680021F1
:1011F000E01804922FF0C8FF33690C229C4652423B
:101200006244A360059313681AA89C4673696044FE
:1012100003600021924606932FF0B6FF0C2149424D
:101220008C46736822A80793079AB3696244624E9A
:10123000934612680893A35033002833A364330005
:101240001433A3605D4B1896E36025616561A56169
:10125000E561256265621EF0B9F8594B0022E36032
:101260001823E36226AB236338231BA92AA8E25480
:1012700065632FF089FF39001AA8FFF75BFD002294
:101280000DAB0B9308AB0C951A75236A002B00D19C
:1012900088E0A269934269D8E3690021D21A0092DA
:1012A000E36900220BA83BF0E1FEFA210B9B454AC3
:1012B0000298490014F0F4FF0B980DAB984204D04B
:1012C0000D9B591C029315F049FD099B41461A00DC
:1012D000986810323C4B08F0F7FE0500404604F0D9
:1012E000C3F9002D4CD02900384815F0EDFF33002C
:1012F0002833A364324B206B1896E360143626AB78
:10130000A660984203D0A36B591C15F027FD2B4B08
:1013100022A8E3601DF044FA5B46089A1B68482146
:10132000E250059B08AAA360534652181B68069911
:101330002AA8D150039B049A18934B461B68E2508D
:10134000002363601A4BA3642FF0D6FF786814ABB8
:10135000984203D0F968013115F000FD01204DB02D
:10136000F0BCBB46B246A946A046F0BDE2690021EA
:101370009B1A00930BA8130000223BF077FE94E722
:10138000134D1422280013493AF0CCF939002800F3
:10139000FFF7D0FC0A2308AA13730BA901223AF025
:1013A000C1F9A4E724A90BA83BF0FAFC7DE7C046ED
:1013B000583309105C3E0910903E0910E43F0910B3
:1013C000D83C0910DC7105100F270000E0710510F2
:1013D000404400200472051010B58EB04469684680
:1013E00018F092F804228021164B4900986A164B97
:1013F0001A60164A13680B42FCD05368FE221B0485
:101400001B0C92050193032306928022049301335F
:10141000D20569460090059307A801330293039211
:1014200019F096FC200007A9FFF7A0FE08980AAB68
:10143000984203D00A99013115F090FC01200EB0BA
:1014400010BDC0460040054000E0044000C004401C
:101450007A2230B50368FF3201008FB0934249D041
:101460000132934205DA582B30D05D2B26D10FB0D4
:1014700030BDF622FF32934222D107A818F01AFDA0
:10148000234D0E22234928003AF04CF907A901A860
:1014900018F05AF9019C002C30D020004BF022FAB1
:1014A0002100020028003AF03DF9019803AB984270
:1014B000DDD00399013115F051FCD8E7002BD6D0CF
:1014C0004A681548190015F0FFFED0E701A818F08A
:1014D00095FA01A907A818F019F807990F4815F00F
:1014E000F3FE079809AB9842C1D00999013115F074
:1014F00035FCBCE70A4815F093FDB8E701212B68DD
:101500000C3B18684019436919432FF0EFFDCCE7F5
:10151000404400205472051064720510407205109A
:101520001C720510F0B52C4B4F464646D6469946E0
:101530002A4B002598462A4BC0B59A46294C2A4F7B
:101540002A4E82B01422494620003AF0EBF82900D6
:1015500020003AF0DDFA012241463AF0E3F8390082
:101560003000234B234A0EF0C1FA002831D0152257
:10157000514620003AF0D6F80622310020003AF019
:10158000D1F80C221C4920003AF0CCF80C2239008A
:1015900020003AF0C7F80122414620003AF0C2F894
:1015A000164801A90EF052F8154B019A1B685B68AA
:1015B000934207D128222000124901353AF0B2F8AF
:1015C0000A2DBFD1002002B0E0BCBA46B146A84601
:1015D000F0BD0120F7E7C04698720510940309108A
:1015E000C872051040440020B0720510C07205108A
:1015F0001027000004004000E0720510F072051092
:101600005CFA0020F8720510F0B5DE4657464E46EB
:101610004546E0B5E7B0FFF71FFAFFF7FDF915F013
:101620005FFEFA20800002F015FA0EF0BDFA0028E5
:1016300000D003E1894B172218008949994616AF5B
:101640003AF070F8012100200EF09EFA0EF040FAF8
:10165000FFF768FF18AB3800824A83499A46169311
:101660001FADFEF777FE814A81491DA81D95FEF743
:1016700071FE804B24AC0093390020007E4B1DAAE4
:10168000FFF782FC1D98A84204D01F9B591C0493AD
:1016900015F064FB1698504503D0BB68591C15F033
:1016A0005DFB2000FFF752FD012100200EF06CFAD7
:1016B000724B1E6801F06AFEFA220500002330001A
:1016C000F117920015F040FA0B0008A902916C493D
:1016D000020000912800019402F044F8694B27A809
:1016E0001B6805255B680FAEE3600EF073F8010020
:1016F0008046654815F0E8FD12AB9B462378002B29
:101700003CD006A964A855F067FC5B4673600023D3
:10171000B360337308E02AAA9446A3690C3B1B68A4
:1017200063445B692B4208D12AA82FF06FFF012880
:10173000F1D131002AA8FEF7D7FF53463B600023C2
:10174000380010A97B603B723BF02AFB3368626F64
:10175000BB612A4232D0002364A8237055F0D4FB29
:101760003868504503D0BB68591C15F0F7FA70680B
:10177000584503D0F368591C15F0F0FAFA208000A0
:1017800002F068F94346002B0DD040464BF0AAF812
:1017900041460200484639F0C5FF012248463B4910
:1017A00039F0C0FFAAE74B4601211B680C3B1868C3
:1017B0004844436919432FF099FCEEE71D9320AB91
:1017C000B2681E93736804920593002B2CD0079285
:1017D0000F2A19D8012A2BD17821059B02AA1B7840
:1017E0005218137020AA002304991DA81F91535466
:1017F000FFF72EFE1E9820AB9842ACD0209B591CC0
:10180000049315F0ABFAA6E7002207A91EA83BF047
:1018100085FA079B1E902093049A059915F088FA83
:10182000079B1E9A0493DEE7002A14D120AADAE768
:10183000049B20AA002BD6D01000EDE71F221449EC
:10184000064839F06FFF012067B0F0BCBB46B246D6
:10185000A946A046F0BD0F482FF09CFB4044002055
:1018600044730510697105105C71051091710510C4
:1018700084710510AC2600000F270000EC2000202A
:10188000D91300105CFA00205C7305109403091052
:10189000247305100871051010B503481CF0A4FD51
:1018A00002481AF053FC10BD10470020782D00208C
:1018B00010B508F049F910BD0123F0B50B7283B0E3
:1018C000040008F075F90500431C0DD11249134BB3
:1018D0001A685B68009201938A60CB6023682000DD
:1018E0005B69984703B0F0BD02F0BAF9FA2206002E
:1018F0000F00002328000021920015F025F936186A
:101900004F41002F03DB04498E60CF60E6E70126DC
:10191000034F7642F7E7C04600210020B873051058
:10192000FFFFFF7F70B5094D04002B78002B08D016
:101930000123074920000B722368DB6998470120C7
:1019400070BD02F089FD01232B70F1E7E60B012049
:10195000F020002010B50400036804499B699847F3
:10196000236820001B6A0249984710BD002100200F
:10197000F0200020002070477047C04610B502F0EC
:101980006FF9002905D0FA220023920014F066FDB9
:1019900010BDFA21890014F023FDF9E702008368E5
:1019A0000832002B04D107E01A001B68002B03D07B
:1019B0009942F9D1002003E00023012011600B605F
:1019C0007047C0468368002B08D0994202D107E0D7
:1019D000994207D01A001B68002BF9D100207047EC
:1019E000020008320B6801201360F8E74368021D0B
:1019F000002B04D107E01A001B68002B03D099428A
:101A0000F9D1002003E00023012011600B60704732
:101A10004368002B08D0994202D107E0994206D0D2
:101A20001A001B68002BF9D100207047021D0B68BB
:101A300001201360F9E7C046F8B54746CE468368F3
:101A4000804680B5002B29D008234344994602F0F4
:101A500007F943469E6804000D00002E58D000236D
:101A60004F469C46B268F36820002900801A9941CD
:101A7000002902DB14001D00BC4637003668002E2A
:101A8000F0D16346002B43D0196840460A681A60BB
:101A90004B68984743469B68002BD8D143465C6807
:101AA000002C31D00025237A002B29D02100636837
:101AB0002572404698472468002CF4D1174B1868CB
:101AC000596843469E68002E04D112E02000290088
:101AD000002E0ED0330002009C68DD680B00121B44
:101AE000AB413668002BF1DCF2D1002AEED1002E9A
:101AF000F0D1434618615961C0BCB946B046F8BD43
:101B00002468002CCFD1D9E7044B18685968F0E756
:101B100043465C68002CC5D1D0E7C046B8730510B9
:101B2000F0B5C646804600B502F09AF843469B6879
:101B300006000F00002B0AD09968DA6834003D00D7
:101B4000641A9541002D10DA1B68002BF4D143462E
:101B50005B68002B03D10AE01B68002B02D0187AC7
:101B60000028F9D080BCB846F0BD0120FAE700207B
:101B7000F8E7C046024B18688007C00F7047C046A0
:101B800000C00640104A114B10B512184B41990085
:101B9000900F0843990F504059400D4A0D4B14F0D7
:101BA000D3FF03004A01C00E1043CA0E58405140F3
:101BB000094B0A4A14F0C8FF03004A00C00F104343
:101BC000CA0F5840514010BD157C4A7FB979379EE5
:101BD000B9E5E41C6D4758BFBB49D094EB113113F4
:101BE000F0B504684568060023002A00C6468068F0
:101BF000F16803430A4300B5134304D102F030F8FF
:101C000003000B43FAD02A06230A60402706134339
:101C10002A0A3A43070CBC4669404B409846634643
:101C20000F041F43424003045A4043467B40326046
:101C30007360C20E4B011343C90E40010843B360E9
:101C4000A10FAB000B43A200A4185D41EB01620E93
:101C50001A43E4016B0E2343F0601E0017005B0F74
:101C6000D100F00019438019794180BCB846F0BD1D
:101C7000F0B5DE4657464E464546E0B5B84B8DB00A
:101C80001B78002B00D1ECE008AB9846B54BB64C66
:101C90000393B64BB64F049310220499404615F0B7
:101CA00047F8B44B1B78DBB2059301F0D9FFFFF77F
:101CB00069FF089B584043465B680890594043467B
:101CC0005960AD4B9B69DB0400D5C0E013F010F800
:101CD000EFF305839B46B9465F46A84B25686668C7
:101CE0009A4628003100002F1AD001F0EDFFEFF3E3
:101CF000108272B653461B68002BFBD0BFF35F8F78
:101D00002368AB420FD0BFF35F8F002153461960A9
:101D100082F310882568666828003100002FE4D11E
:101D200001F024FEE3E76368B342ECD10125924B56
:101D30001600D8694F46054001F092FF0A220023A1
:101D400080185941002900DA7DE03A687B689218D2
:101D50005B412060616028001C0013001043009369
:101D6000019438607C60BFF35F8F0024834A146065
:101D700086F310880199FFF705FF43469B68804A68
:101D800058404346DB689446594043469860D960C2
:101D9000039B7C4A1B78DB006344986890425ED0CA
:101DA0000021FFF7EFFE089B584043465B68089010
:101DB000594043465960EFF3108572B66F4A136875
:101DC000002BFCD0BFF35F8F6A4B059A1B789342C0
:101DD00019D0049940460B6840681A00089B5A4085
:101DE000089242464B68434053608B6800934346D9
:101DF000009A9B685A40CB684146C96800934B40A3
:101E000041468A60CB604046FFF7EAFE102206009A
:101E10000C000498414614F08BFF564B554A1B7832
:101E20000133DBB21370BFF35F8F0022534B1A6094
:101E300085F31088300021000DB0F0BCBB46B246DF
:101E4000A946A046F0BD01204F4940427DE74F4BD7
:101E5000DA6BE0231340402B00D039E736E79C6073
:101E60009EE74B4B9946186859684A4B9C464A4B2B
:101E70009846830E8F011F438601030C0D041D43FA
:101E800032003B00040412196B41121A8B41614667
:101E900001C98C4600210090019100980199801899
:101EA0005941C445E5D14B4618605960FFF76AFEB9
:101EB00008AB9846089B584043465B6808905940D9
:101EC000434606A8596000F021F906980799FFF7E4
:101ED00059FE43469B6858404346DB685940434699
:101EE0009860D960244B9B69DB0436D5274BDA6BAD
:101EF000E0231340402B30D0EFF305839A46402374
:101F00000024039300231D4F00930194164C0023DB
:101F10009B4653462568666828003100002B19D07F
:101F200001F0D2FEEFF3108972B63B68002BFCD0B3
:101F3000BFF35F8F2368AB4230D0BFF35F8F5B4648
:101F40003B6089F310885346256866682800310095
:101F5000002BE5D101F00AFDE4E712F0C9FECBE762
:101F6000F00B0120E10B0120302F0020602D00201C
:101F7000702D0020E20B012000000640300100D04F
:101F800000000340FFFFFF00FFFFFF7F00800040D5
:101F9000582D0020001C0420002004206368B34258
:101FA000CBD1009A019B1000190080185941484B71
:101FB000DA690123134003430093019101F050FEBD
:101FC0000A22002380185941002949DB039B206025
:101FD0006160012B3AD1009801993E4F38607960D9
:101FE000BFF35F8F00233C4D2B6089F31088FFF710
:101FF000C9FD089B584043465B68089059404346DA
:10200000596001F02DFEFFF7BDFD43469B68584027
:102010004346DB68594043469860D960EFF3108629
:1020200072B62B68002BFCD0BFF35F8F2B4B1B7855
:10203000002B19D02A4B03932A4B0493BFF35F8FD5
:102040000022254B1A6086F3108825E6BFF35F8FC8
:1020500000233B6089F31088039B013B039356E701
:10206000012021494042B1E7204BDA681F2A23D0E2
:102070005A691F2A22D0DA691F2A25D05B6A1F2BD2
:102080001FD012F035FEFF22FF231549DB000A7036
:10209000174A03919446052263445A604046FFF76D
:1020A0009FFD104B102218004146049314F040FE8F
:1020B00001230A4A1370C1E700230393039BDAB29A
:1020C000E3E71C3B0393F9E702230393F6E7C046DB
:1020D00000000640702D0020300100D0F00B0120E0
:1020E000E10B0120602D0020FFFFFF7F0000034077
:1020F0000800034010B5FFF7BBFD10BD10B5024846
:1021000000F0E0F810BDC046500A012010B50822CA
:10211000014914F00DFE10BD500A012030B54B1ED0
:10212000012900D1A7E0664A11780D112C00303446
:102130009F2900D9A2E00470012B00D1BEE00F213D
:10214000147821400C003034092900DD98E04470F7
:10215000022B00D1B2E054782511290030319F2C98
:1021600000D990E08170032B00D1A7E00F2121401E
:102170000C003034092900DD87E0C470042B00D145
:102180009CE094782511290030319F2C00D97FE004
:102190000171052B00D191E00F2121400C0030345A
:1021A000092900DD76E04471062B00D186E0D47861
:1021B0002511290030319F2C00D96EE08171072B49
:1021C00000D17BE00F2121400C003034092966DC6E
:1021D000C471082B00D171E0147925112900303128
:1021E0009F2C5FD80172092B68D00F2121400C0071
:1021F0003034092958DC44720A2B5FD054792511F8
:10220000290030319F2C52D881720B2B56D00F21D0
:1022100021400C00303409294BDCC4720C2B4DD00A
:1022200094792511290030319F2C00D90731017391
:102230000D2B43D00F2121400C003034092901DD42
:1022400037310C0044730E2B38D0D1790C11220099
:1022500030329F2900D9073282730F2B2ED00F22E4
:102260000A4011003731092A01DC30321100C173F4
:10227000102B23D010300023037030BD07345AE7F1
:1022800037310C0063E707316CE737310C0074E736
:1022900007317DE737310C0085E707318EE73731AD
:1022A0000C0095E707319DE737310C00A3E70731B4
:1022B000AAE737310C00C4720C2BB1D1C018DAE791
:1022C000500A012030B5002589B004000922002100
:1022D00001A8009514F026FD0922002105A8049507
:1022E00014F020FD4B236A466846137004A90D22A2
:1022F00054F002FE152108222000694414F018FD54
:1023000009B030BDEFF3108072B6034A1368002B9A
:10231000FCD0BFF35F8F70472C0100D0BFF35F8FFD
:102320000022024B1A6080F3108870472C0100D005
:1023300070B5EFF3108C72B60D4D2B68002BFCD0EE
:10234000BFF35F8F0724CB08C618C05C01230C4085
:10235000A3401C000440034207D103433370BFF382
:102360005F8F2C608CF3108870BD100012F0A8FCF9
:102370002C0100D0F8B54746CE46884680B5EFF32D
:10238000108C72B6214D2C68002CFCD0BFF35F8FEF
:102390009A422CD8D4080727055D06190124174056
:1023A000BC402C421FD007210127894609E0D408F0
:1023B000055D06194C4639001440A1400C00294225
:1023C00011D001329342F2D201204042BFF35F8F1D
:1023D00000220E4B1A608CF3108800280FDBC0BC63
:1023E000B946B046F8BD2C4310003470EEE7BFF399
:1023F0005F8F00232B608CF31088012040424346FE
:10240000002BECD0089812F05BFCC0462C0100D0E9
:1024100030B5EFF3108C72B60A4C2368002BFCD059
:10242000BFF35F8F07230122CD0819408A40435D27
:1024300093434355BFF35F8F002323608CF31088D1
:1024400030BDC0462C0100D00021044B044ABFF32C
:102450005F8F02C39342FAD17047C046000100D09B
:10246000800100D0044A1078431CDBB2172B00D93E
:10247000102313707047C0461821002000B5054B8B
:1024800083B00100009318221F230348FFF772FF57
:1024900003B000BD7C730510944D0020142310B5CB
:1024A0000100188804331B88984710BD162310B507
:1024B0000100188802331B88984710BDF8B54746BD
:1024C000CE4680B50F1E19D014239946043304005C
:1024D0000025012698464B461888434621681B88EC
:1024E000984701C4431E9841013540420640AF421F
:1024F000F1D13000C0BCB946B046F8BD0126F8E7BE
:1025000030B50C2083B001F03FFFFFF733FB00280C
:102510000ED0994B994A1A605A609A60DA601A6133
:102520005A619A61DA611A62954A5A6203B030BD03
:10253000944CA06701F07CFF0122934B1A60636CFE
:10254000012BFCD10322914B1A608E4A936B012B15
:10255000FCD1013301218E4A8E480093043301F0EF
:10256000C3FE05238C4A009301218C4801F0BCFE78
:102570008B4B5A68FF2A02D8802252005A60802270
:102580007D4C824B21691201854D1A60002907D0CC
:10259000606913F025FF431C5800C0180338FDD2B2
:1025A000E0217F4B02201A681140802252012A4309
:1025B00011601968484003210140116004219A68A4
:1025C0001142FCD08022802192012A43090111602E
:1025D000802252005A60734B2361734B5968FF2964
:1025E00000D85A600321684A6F4B116002399A681B
:1025F0001142FCD0E0201A681040802252011A4398
:1026000010601868484003210140022011606649AB
:102610008A681042FCD0802292011343802212016A
:102620001A608022614B52004A606361604B5968B6
:10263000FF2900D85A6080225E4BE16912015C4D8F
:102640001A60002907D0606913F0CAFE431C5800C5
:10265000C0180338FDD2E02255490B681A40802388
:102660005B012B431A60802380229B012B431201C4
:102670001A608022414B52004A60E3614E4B596818
:10268000FF2900D85A6080224C4B216A12014A4D22
:102690001A60002907D0606913F0A2FE431C58009D
:1026A000C0180338FDD2E02243490B681A4080234A
:1026B0005B012B431A60802380229B012B43120174
:1026C0001A60802380225B004B602C4BD202236275
:1026D0003B4B5968914200D25A608022394B616A63
:1026E0001201374D1A60002907D0606913F078FE97
:1026F000431C5800C0180338FDD2E02230490B6853
:102700001A4080235B012B431A60802380229B01A7
:102710002B4312011A608023DB024B60184B63626B
:10272000294B5A68FF2A02D8802252005A60802220
:10273000264BA1691201244D1A60002907D0606957
:1027400013F04EFE431C5800C0180338FDD2E0229F
:102750001D490B681A4080235B012B431A608023BC
:1027600080229B012B4312011A6080235B004B6087
:102770000E4BA361DAE6C046984D0020006CDC02E7
:102780001BB70000008000403CB0004030B000406B
:10279000002F685900800240008C864700C002402C
:1027A00030800040001BB7003C8000404059730758
:1027B0005480004054B000406080004060B0004051
:1027C0006C8000406CB000404880004048B0004041
:1027D000014B8000C0587047984D0020094A830083
:1027E00094464022634410B51C68C0006240C02477
:1027F00014408022520113431C60034B9C466044EA
:10280000416010BD04C00140004001400A4B8000FF
:102810009C4604236044002901D00C230821002A8F
:1028200000D10B00026853400C221A4080235B0148
:10283000184302607047C04604C00140084B800046
:102840009C466044002905D080239B011843022345
:1028500003607047C0239B01184302230360F8E71D
:1028600004C00140D0231B061B6830B50500581E6C
:1028700083410F485C428446072030232840234090
:102880008000EC08814020000A4D3C306344800009
:10289000A40041511B19002A04D080229201134345
:1028A000196030BDC022920113431960F9E7C04698
:1028B0000041014000400140D023F0B5C64604006D
:1028C0001B0698461B680C4F9B00F8580D0016001D
:1028D00000B5044209D1044332002900FC500D2008
:1028E00000F0B0F880BCB846F0BD12F001FA4346E3
:1028F0001B689B00F858EEE73C0A012010B5040065
:102900000D2000F093F9D0231B061B6802499B00A1
:102910005A58A2435A5010BD3C0A0120084B80006F
:102920009C466044002905D080239B011843402326
:1029300003607047C0239B01184340230360F8E7FE
:1029400004C001400123D0228340120693629361A8
:10295000094A83009446402263441968C0004A40F3
:10296000C02111408022520113431960034B9C4641
:10297000052360444360704704C0014000400140AB
:1029800001238340002904D0034A1360034A1360E3
:102990007047034A1360FBE780E200E000E100E0DB
:1029A00080E100E001238340014A13607047C04684
:1029B00000E200E0084B10309B688000C358002BF9
:1029C00007D0064A00209B1A5F229A424041C0B2BB
:1029D00070470020FCE7C04600ED00E01C2100200D
:1029E000024B10309B688000C058704700ED00E03B
:1029F00070B50D00EFF3108672B60F4A1368002B06
:102A0000FCD0BFF35F8F0D4B10309B6884001B59C7
:102A10000B4A934203D09D4201D012F069F9074B53
:102A20009B681D51BFF35F8FBFF35F8F0022024B86
:102A30001A6086F3108870BD240100D000ED00E01C
:102A4000CD010010F0B557464E46DE464546E0B58E
:102A500085B0060002911700EFF3108B72B6674A3B
:102A60001368002BFCD0BFF35F8F0025644B5D57CC
:102A70009A46002D00DAA4E06B00624C03935B19C8
:102A80009B009846A146C1444B4652469B7910365E
:102A900013705D4BB2009B68019299580B1B5F2B22
:102AA00034D95A4B994200D0A4E0039B584A9C4623
:102AB000584B6544AD006353434602336519E4182F
:102AC000554B0121043B1B1B1B055B0D13436B8006
:102AD000524BEF71AB80FF23AB71029BAB604B4657
:102AE0000B431900484B019A9B689950BFF35F8FC5
:102AF000BFF35F8F0022414B1A608BF3108805B043
:102B0000F0BCBB46B246A946A046F0BD01200A0073
:102B10008243D379BB422FD845464E4613004049E5
:102B20001B1B5B415943090D3A4B63533A4B02352A
:102B30006519043B5B1B1B05354D5B0D2B437380F7
:102B40000426B446E0444444131F1B1B4C46A171A9
:102B500002991B05A16049465B0D2B43A380314BB5
:102B6000E77101431360BDE75800C01880002018CA
:102B7000C679BE422BD902000623D356002BF3DAC6
:102B8000101D82462848804604267642B446E14419
:102B900050464E46361A3005400D824656461C4871
:102BA000957106439680039A944665441D4AAD008C
:102BB000641922604246A371029BA280E771A36060
:102BC00090E712F095F8002553465D5754E7101D25
:102BD000824690884005001584464046D4446646A7
:102BE00004302018301AE0260005400D360230432C
:102BF0008046C9E712F07CF857E7C046240100D0B0
:102C0000E90B01201C21002000ED00E0CD010010A7
:102C100000E0FFFF00A1FFFF7C21002001BDFFFFBE
:102C2000AAAA00000148804701BD0000F0B5DE46B9
:102C300057464E464546E0B50C0083B0EFF3108989
:102C400072B6584A1368002BFCD0BFF35F8F564B07
:102C50009A68030010339F00D559544A9046954214
:102C600032D0A54243D0524EAA1B5F2A2CD8012253
:102C70008240924651464F4A126811400191514696
:102C80004D4A1160BFF35F8FEFF305829346002A30
:102C900033D101232A009A4393689C4208D177E0FC
:102CA0004B005B189B00F3189968A1422AD01A00C8
:102CB000062151560029F3DA019B002B19D0524608
:102CC0003E4B1A603B4B1A60374B9B68DD51BFF39C
:102CD0005F8FBFF35F8F0022324B1A6089F3108839
:102CE00003B0F0BCBB46B246A946A046F0BD1500F5
:102CF000EAE75246304B1A60E6E79342C9D011F03A
:102D0000F7FFC6E706215956002921DB4A00501873
:102D1000800034188046A0689860E079D871062059
:102D200020569871002824DBA488F01A6405241525
:102D300044440019E0240005400D240220439880FB
:102D400052181F4B9200B6181A781970B271B3E777
:102D5000594600290FD1FF3191711A4991801849C4
:102D60000A789A71184A9B1B5B415A43120D0A70EC
:102D7000A2E71648E3E7164A1649D21A083A500263
:102D8000400D01439980144952080A43DA8093E7C1
:102D90000621515613000029B8DA5A46002AEAD112
:102DA0004546DCE7240100D000ED00E0CD01001035
:102DB0001C21002000E100E080E100E080E200E072
:102DC000E90B012001BDFFFFAAAA000001BD000020
:102DD0008621002000F0FFFF00F8FFFF032310B55D
:102DE0000400074A18409446C0009C43FC338340CB
:102DF0006444226881409A4313000B43236010BD52
:102E000000E400E070B5EFF3058101240443EFF323
:102E1000108C72B62D4A1368002BFCD0BFF35F8F65
:102E20002B4A05002B4BAD1A6D416B431B0D2A4DF0
:102E30008900AE685BB27658A6422CD00621515666
:102E400099422CD012215156994234D01E2151560C
:102E5000994232D02A215156994230D036215156CA
:102E600099422ED042215156994222D04E2151569C
:102E7000994228D05A2151560724994210D0174A16
:102E8000117813708171BFF35F8F00220F4B1A60AE
:102E90008CF3108870BDAA68114C5450EFE70024E1
:102EA0006100091989005218FF2191710D49918023
:102EB000E5E70524F4E70124F2E70224F0E7032420
:102EC000EEE70424ECE70624EAE7C046240100D03C
:102ED0001C210020AAAA000000ED00E0E90B01205F
:102EE000CD01001001BDFFFF054B064A1360064AE5
:102EF000136053609360D3601361536193617047B3
:102F00008080808000E400E004E400E01F2110B530
:102F1000091A0248FFF77CFA10BDC046F50B0120E4
:102F200000B5074B83B0010000930022052305483C
:102F3000FFF720FA002801DB1F23181A03B000BD99
:102F400098730510F50B012070B504000E001500F4
:102F5000FFF788FA0100200000F006F8A680E5805F
:102F6000BFF35F8F70BDC046024B9C466144890031
:102F7000016070474000003410B50400FFF772FA9A
:102F800001002000FFF7F0FFFF232371BFF35F8FE5
:102F900010BDC04610B50400FFF764FA0100200020
:102FA000FFF7E2FFFF23A380BFF35F8F10BDC04692
:102FB00010B504000120FFF761FA044B9C46604401
:102FC00080002060BFF35F8F10BDC046400000341A
:102FD000034B9C46614489000160BFF35F8F7047DB
:102FE0004000003483680B4810B584466144624455
:102FF000090112019A18591854684B6801209C4223
:1030000001D802D00020C0B210BD12680B689A42ED
:10301000F9D8F7E7FFFFFF0F10B508000B690C00A8
:103020009847002802D02068616810BDE060002148
:103030000020FAE70A4B1968EFF3108072B60A68AD
:10304000002AFCD0BFF35F8F1B68BFF35F8F0022A5
:103050001A6080F3108840BF002000217047C046EE
:10306000600B0120F8B557464E464546DE46E0B5B2
:1030700099460CAB1C780DAB1B78060090469A461F
:103080000768002C11D1BC7B002C42D065003B6846
:103090002D19033D59194B78BB73002B00D1FB73DD
:1030A00000238B704B700B7004E065003B682D199A
:1030B000033D5919B2682A4B94464246E3181B0156
:1030C00063441A604A465A600A9A9A600B9ADA6018
:1030D00000238B704B700B707B7B9B46002B2BD09F
:1030E00022005946B8687B6898473A68002816D08D
:1030F0005B4658465B005B445519033BA870D118EA
:10310000D35C002B00D06B705B460C707B73A345C7
:1031100013D0F0BCBB46B246A946A046F8BD5B46FC
:103120005B005B44033BD3189C705119525D002A2D
:1031300000D05A705B460B707C7342464B46307D24
:1031400000F018FE051E06D05346002B03D12100C7
:10315000306801F08BF80E9B002BDAD01D70D8E799
:10316000FFFFFF0FF0B5DE4657464E4645460023AB
:10317000E0B58BB00893674B8200D45800239B4680
:10318000099000F06DFD626806000F00EFF31085F6
:1031900072B61368002BFCD0BFF35F8F23689C4688
:1031A0005B7B9946002B00D169E0A2685A4B9046A0
:1031B0004B441B01984443461A685B681000190091
:1031C000801BB941002900DC63E0099800F0D2FDC2
:1031D00000230022984600230692079300239A4674
:1031E0006368BFF35F8F5A461A6085F310885346B1
:1031F000002B08D10028C4D10BB0F0BCBB46B246AE
:10320000A946A046F0BD089B414618024B4618430C
:10321000D047626806000F00EFF3108572B613689E
:10322000002BFCD0BFF35F8F002F50DB33003B43FC
:1032300002D02369002B61D12368D97B002907D0F4
:103240004A00521819688C4649466244033A517044
:103250009A7B002A01D14A469A734A46DA734B4652
:10326000E168013BCA5C0132CA545B462361636872
:10327000BFF35F8F5A461A6085F3108881E70023F9
:1032800000229846002306920793002300209A46C6
:10329000A6E7002902D1002800D096E70021604669
:1032A00000F062FF43461A685B6806920793434644
:1032B0009B689A464346DB689846E3684B44013B6B
:1032C0001B7808931B0203432361002088E72369CE
:1032D000002BB1D0069A079B921BBB41002B15DB3C
:1032E00059460491012103914946029141460191B9
:1032F000514620000091FFF7B5FEB6E700F0B0FCA4
:1033000032003B0012184B41002BE9DA0122034B3B
:103310005242E5E770FA0020FFFFFF0FFFFFFF7F3B
:1033200010B5144C6368002B04D00A211248FFF733
:103330001BFE10BD2300114A1021206800F024FE5E
:10334000032000F069FC032000F07EFD03200C49FF
:1033500000F0CAFCFFF786F80A4B9C46032323754E
:10336000D0231B061B6860446375074B80006060B8
:10337000DC60DAE794210020600B0120E52F0010CB
:10338000653100104000003470FA0020004870479A
:103390009421002070B50500182013F06DFC16492B
:1033A00004000200280000F0BFFD1021206028006A
:1033B00013F080FC0121A060280013F07BFCE0608A
:1033C000012000F03DFC050000F03EFD28000B4907
:1033D00000F08AFCFFF746F8094B25759C46D02380
:1033E0001B061B6860446375064BAD00800060607F
:1033F000EC50200070BDC046E52F00106531001074
:103400004000003470FA00200E4B10B504009842C2
:1034100017D00021037D0C4A9B009950006800F0F2
:10342000D1FD0021207D00F05FFC207D00F000FC3C
:10343000E06813F05FFCA06813F05CFC200013F060
:1034400059FC10BD9421002070FA0020F0B54E46C2
:103450004546DE465746E0B585B0019310AB1B7874
:103460000600039300239946984600927268EFF392
:10347000108B72B61368002BFCD0BFF35F8F3568DA
:10348000AC7B002C3DD067002B683F19033FDB1954
:103490005A78AA73002A00D1EA73B168474A8C4669
:1034A00000980199A21812016244106051600E99AF
:1034B00091600F99D16042469A705A701A706B7B76
:1034C0009A46002B67D022001900A8686B689847BD
:1034D0002A68002852D0534650465B005344D719FF
:1034E000033BB870D118D35C002B00D07B705346DF
:1034F0000C706B7354454FD0F3681B19013B18785F
:1035000000E000207368BFF35F8F42461A608BF3C0
:103510001088002C4FD04B46002B08D100022043CE
:1035200005B0F0BCBB46B246A946A046F0BD039B21
:10353000002B3ED00E9B00200F99984703000400FB
:103540000D000B4335D000290ADA009A019B121BAB
:10355000AB4100920193002B0ADB039B994685E760
:1035600000F07EFB24184D4100940195002DF4DA03
:103570000123134C5B4200930194EEE753465B003A
:103580005344033BD3189C70D119D25D002A00D05C
:103590005A7053460B706C73307D009A019B00F09B
:1035A000E9FB81460028A7D02100306800F05EFECC
:1035B000A2E70020B4E701204042B1E7FFFFFF0F80
:1035C000FFFFFF7FF0B557464546DE464E46E0B565
:1035D0000400170083B098464268EFF3108A72B671
:1035E0001368002BFCD0BFF35F8F2668B57B002DDE
:1035F0003FD06B005B19033B9C46326801936244E9
:103600005378AB46B373002B00D1F373A168354BED
:103610008C464146EB181B01634459600C991F60AE
:1036200099600D99D9600023937053701370737B68
:103630009946002B48D02A001900B0687368984753
:103640003268002832D04B4648465B004B44033B6F
:10365000D1188C46019951188870D35C002B00D08A
:103660004B7063461D704B46002073734D4531D13E
:103670002BE0002300269B4600206368BFF35F8F8A
:1036800000221A608AF31088002D28D0002809D162
:103690005B463002184303B0F0BCBB46B246A946B5
:1036A000A046F0BD207D00F0EDFBF1E74B465B004E
:1036B0004B44033B0198D3189D701118125C002AEB
:1036C00000D05A704B460B7075733A004346207D0C
:1036D00000F050FBE3685B19013B1E78CDE7012049
:1036E0004042D8E7FFFFFF0F70B50400002933D038
:1036F0004268EFF3108572B61368002BFCD0BFF35D
:103700005F8F2068CEB2437BB34216D0FF230B40BD
:103710005A00D318026894466344033B9B78002BFD
:103720000BD12269914219D000206368BFF35F8FEB
:1037300000221A6085F3108870BDFF230A0A0B402F
:10374000E168D2B28C466344013B19789142EBD1D7
:10375000310000F08BFDE8E70020EDE72361E3E7AF
:10376000407D7047F0B54E464546DE465746E0B5CB
:1037700085B01099804689461100194300D1D8E0E0
:10378000D81706005640340006005E4001003500A0
:10379000241A8D41494640460A6088600F9A0E9867
:1037A0004B6008614A6100F05BFA001969410090C2
:1037B0000191002900DACAE0002300259A46434619
:1037C0005A68EFF3108B72B61368002BFCD0BFF36E
:1037D0005F8F43461E68B47B002C00D189E06300F4
:1037E0001B19033B1A009446039333680294634405
:1037F0005A78B273002A00D1F27341468968584A58
:103800008C4600980199A218120162441060516020
:10381000544991604946D16052469A705A701A7064
:10382000777B002F00D174E022003900B068736804
:1038300098473268002861D003997B00DB19511842
:10384000033B8F70D018D35C002B00D079E004705C
:1038500077732E00BC425DD04346DB681B19013BE9
:103860001B7842465268BFF35F8F514611608BF35D
:103870001088002C67D0002E0DD1029A1B02134332
:1038800001364A463000D36005B0F0BCBB46B246B4
:10389000A946A046F0BD4846036998470500031EA7
:1038A00001D10023EDE74A461668576832003A43D3
:1038B00053D0002F0EDA009B019C9B1BBC41009350
:1038C0000194002C00DB7AE70123274C5B42009334
:1038D000019474E700F0C4F936184F41009601973F
:1038E000002F00DB6BE701231F4C5B420093019428
:1038F00065E700222E0000230292B2E77B00DB196D
:10390000033B0398D3189C701118125C002A15D140
:103910000F7074734346187D009A019B00F02AFAD9
:10392000061E00D198E743462100186800F09EFC6F
:1039300092E701240025012200232BE75A700F7023
:10394000E7E74B7083E7012300265B4299E70123F9
:10395000054C5B42009301942EE71E00002390E784
:10396000FFFFFF0F19300010FFFFFF7FF0B50400CD
:103970000D0006267642F717C64636196F4100B588
:1039800084B08F4214D811D000F06AF932003B00A5
:10399000121A8B41002B15DC002B3ED02000290091
:1039A00000F092F904B080BCB846F0BD8642EBD975
:1039B0000026002700F054F932003B00121A8B4118
:1039C000002BE9DD002302930193154B3200009395
:1039D00014483B00FFF73AFD0028DFDB0023984640
:1039E000BC46114A114F7B6A9C4504D8B96A8E4285
:1039F000D4D99C45D2D11168EFF3108072B60B6810
:103A0000002BFCD0BFF35F8F1368BFF35F8F41467D
:103A1000196080F3108820BFE5E7002ABED0D1E707
:103A20003530001094210020600B0120004005403B
:103A300070B504000D0000F013F900196941002968
:103A400002DBFFF793FF70BD012001494042F8E718
:103A5000FFFFFF7F70B5060000F002F9FA220400B4
:103A60000D00002330000021920013F06DF80019C2
:103A70006941002902DBFFF779FF70BD0120014990
:103A80004042F8E7FFFFFF7FF0B5EFF30583CE4636
:103A9000474680B505000C0085B0002B12D02C4A9B
:103AA0000020536A9C4203D8926A0130AA4204D390
:103AB00005B0C0BCB946B046F0BDE01A421E904108
:103AC000C0B2F5E7234E02930193234B020000930B
:103AD00030000B00FFF7BAFC031EE0DD20BF716869
:103AE000EFF3108772B60A68002AFCD0BFF35F8F2D
:103AF000DAB294463068427B62451DD0FF221A40FC
:103B00005100894601689144884649464144033939
:103B10008978002913D0F1681B0A88464244013A8B
:103B20001278DBB29A420FD07368BFF35F8F002226
:103B30001A6087F31088B2E7FF221A40EBE7326978
:103B40009342F1D13161EFE7614600F08FFBEBE783
:103B5000004005409421002035300010F0B5EFF30F
:103B60000582D6464F4646461000C0B51038EFF3E2
:103B7000108872B6214C2368002BFCD0BFF35F8FF6
:103B80000123190081401E4D1F006963AA461D4D87
:103B900029601D4D2E78AC463500C5402F402B4284
:103BA00009D1BFF35F8F276088F31088E0BCBA4665
:103BB000B146A846F0BD5346144D5F6A83005D5977
:103BC000AF420ED3124A8E439B5862461670BFF323
:103BD0005F8F0022226088F31088002BE6D0984780
:103BE000E4E70C4B92009C46624413681360BFF3F9
:103BF0005F8F0023236088F31088D7E7280100D067
:103C0000004005403C700540F40B01207C0B012076
:103C1000644B0020D03F054010B50100024A034824
:103C2000FEF786FB10BDC046C0730510E30B0120F4
:103C300010B501000148FEF7EBFB10BDE30B0120BE
:103C400000B5054B83B00100009300220323034815
:103C5000FEF790FB03B000BDE4730510E30B0120F9
:103C6000034B596A0A00986A596A8A42FAD1704726
:103C70000040054070B504000D00124A536A190057
:103C8000966A536A8B42FAD13000190024184D41CC
:103C9000AB4211D80ED02B000A494A6A9A42FCD393
:103CA00007D1084A02E0516A994202D1916AA142C1
:103CB000F9D370BDA642EED9012301246442E51771
:103CC0005B42E9E700400540064A536A9942FCD846
:103CD00007D1044B02E05A6A914202D19A6A8242A9
:103CE000F9D370470040054070B504000D00EFF3B4
:103CF000108672B61A4A1368002BFCD0BFF35F8F90
:103D0000002D1BD02000FEF76BFE164981420AD021
:103D10002000FEF76DFE01212000FEF731FE012399
:103D2000A340114A1360114BA400E550BFF35F8F0D
:103D300000220B4B1A6086F3108870BD0B4BA2005B
:103D4000D5500122A2400A4920000B7893430B7002
:103D50000449FEF76BFF00212000FEF711FEE5E7A6
:103D6000280100D05D3B001038600540644B002006
:103D7000F40B0120F0B54F46D6464646C0B50700C5
:103D80002C4C616A0D00A66A616AA942FAD18B4285
:103D900008D805D00120E0BCBA46B146A846F0BD1F
:103DA000B242F7D9EFF3108A72B6234801680029AE
:103DB000FCD0BFF35F8F0125BD4020491D4C8846D4
:103DC000097889462943C9B28C4641466046087045
:103DD000391D1B48890065630A51B9000B50216ADF
:103DE0000020294219D0616A0800A66A616A8142EE
:103DF000FAD18B4219D801D1B24216D8CC4516D08F
:103E00000C4B1F201D625D6301230740BB400D4A20
:103E10001E38136043464A461A70BFF35F8F002274
:103E2000054B1A608AF31088B5E70020F5E70120FA
:103E3000F3E7C04600400540280100D0F40B012004
:103E40007C0B012080E200E0EFF3108C72B60A498F
:103E50000B68002BFCD0BFF35F8F01238340074A20
:103E60000748136202789A430270BFF35F8F002302
:103E70000B608CF310887047280100D0004005408B
:103E8000F40B0120EFF3108C72B60A490B68002B7B
:103E9000FCD0BFF35F8F01238340074802781A43A9
:103EA0000270BFF35F8F00220A608CF31088034A10
:103EB00013607047280100D0F40B01203C600540DE
:103EC00070B5050014001600002915D00C00002A5A
:103ED00012D080686B689847296800280ED073005C
:103EE0009B196200033B1219CB18033A9C70881887
:103EF0008A5C002A15D10670200070BD63001B1972
:103F00007200033B9219CB18033A9E7088188A5CA2
:103F1000002A02D104703400EEE75A7004703400B5
:103F2000EAE75A700670E7E7F0B5C646060088462D
:103F300000B510210120170012F0BCFE032105007E
:103F4000300012F0B7FE43466B600023F4B26B738F
:103F5000013328602C73AF60AB73EC73012C06D96E
:103F6000421C0133DBB2137003329C42F9D1FF23B0
:103F70001E4073009E1900238019033843702800E7
:103F800080BCB846F0BDC04630B583600023CCB2DB
:103F900043730133047342608373C4730D0000687C
:103FA000012C06D9421C0133DBB2137003329C4250
:103FB000F9D1FF2129404B0059180023401803383C
:103FC000437030BD10B50400006812F093FE20006D
:103FD00012F090FE10BDC046F8B5CE46474606002A
:103FE0000C0080B5002907D04D0003686D18033D13
:103FF0005A195778002F04D12000C0BCB946B046EA
:10400000F8BD7900C919033988464344597889466F
:1040100000215970517073683A00210080689847F8
:104020003368002814D042469A18947059195B5D81
:10403000002B00D053700F70270049463000FFF767
:10404000CBFF390002003000FFF73AFF0400D3E74E
:10405000424641465D19AF709A185B5C002B00D058
:104060006B701470E9E7C046F0B557464546DE462A
:104070004E46E0B50D006B0001685B19DF1E0400C1
:10408000C85D83B00192CA19002850D043001B18A4
:10409000033BCB185E78B446002E1AD1019E002E49
:1040A00042D0E67B002E04D073009B19CB18033B53
:1040B0005D70A37B002B00D1A573E57300282FD181
:1040C0000023537003B0F0BCBB46B246A946A046DD
:1040D000F0BD72006244033A89184A789046002283
:1040E0004A7091465A70010032002000FFF7E8FE46
:1040F00043468246002B07D05B0021684344033BC4
:10410000CB185A78002A16D1424651462000FFF7B4
:10411000D7FE2168019BCA19002BC2D10028CFD03D
:1041200043001B18033BCB1800219970C8E7019B83
:10413000002BB6D1C4E7500080180338091848781E
:10414000834648464870587041462000FFF7B8FE45
:10415000594680462000FFF73FFF414602002000FD
:10416000FFF7AEFE8046CFE7F0B557464546DE4640
:104170004E46E0B583B00191457B04006B000068BA
:104180005B19DF1EC15DC219002952D04B005B18BC
:10419000033BC3185E78B446002E1CD1019E002E4E
:1041A00044D0E67B002E04D073009B19C318033B58
:1041B0005D70A37B002B00D1A573E573002931D17D
:1041C000002328005370617303B0F0BCBB46B246B5
:1041D000A946A046F0BD72006244033A80184278B6
:1041E00090460022427091465A7020003200FFF73C
:1041F00067FE43468246002B07D05B00216843449C
:10420000033BCB185A78002A17D14246514620006A
:10421000FFF756FE019B01002068C219002BC0D198
:104220000029CDD04B005B18033BC31800209870C9
:10423000C6E7019B002BB4D1C2E7500080180338B9
:10424000091848788346484648705870414620000F
:10425000FFF736FE594680462000FFF7BDFE414677
:1042600002002000FFF72CFE8046CEE770B5040068
:1042700000292CD0437B8B422ED005684800401883
:10428000033828188278002A21D053009B18033B5A
:10429000EA5CEE188A4202D11BE0002A08D05300E3
:1042A0009B18033BEB185A788A42F6D142785A7031
:1042B00000230122837043702000FFF7D5FE617B4D
:1042C00002002000FFF7FCFD6073012000E00020E9
:1042D00070BD43783370EBE701221900FFF7C4FE8D
:1042E00060730120F4E7C046F8B5040021481D00C2
:1042F00017000E0012F074F80100380012F070F888
:10430000069B29041B0319432368002B20DB1A4B4F
:104310001A4DE21853425A4180235B019C46120316
:10432000174B62441A60174B1A601700AB689F4323
:10433000FBD1C022231D92011A4321232660A060D5
:1043400013602368002BFCDA0823E1601360F8BDDA
:104350003F2322681340B342D9D1A3681B051B0D2C
:104360008342D4D1EE22E368D20213408B42CED1F5
:10437000EDE7C046001BB7000040FDBF00C0004095
:1043800000E0004000F000408023024A9B0003430D
:10439000D36270470080054010B5140080221B4B8B
:1043A000D2051A6000281AD00123194A1843194B64
:1043B000DA61194A42401A62596298628022134BAC
:1043C000D2051A601549164A1160E022D2041A601B
:1043D000002C07D18022134B12061A6010BD0D4B22
:1043E000D861EBE763011B1B9A00802312191201AD
:1043F0005B049A4200D30C4A0C4B1A60054B5A607E
:104400008022084BD2051A60E8E7C04600B005409C
:10441000D3C007B0008005402D3FF84FFCFF0100DE
:104420000820014000A00540FFFFFF00D8600020E9
:10443000AA23064A1B0113602F230549D360054BAD
:1044400019605368002BFCDA7047C04600400240F8
:1044500000B0FA000060024010B501F0BBFB00F0B4
:104460001FFB00F0E3FC00F08DFD05F0B5FB01F053
:1044700041FC00F057F905F01FFB10BD40BA80B2B7
:104480007047C04600BA7047F8B54746CE4680B57B
:10449000070104003818000110308146404D414E9C
:1044A0002B688846B144002B02D02A7AA24258D009
:1044B000EB68002B02D02A7DA2424BD0AB69002BC7
:1044C00003D02022AA5CA2423DD06B6A002B03D00D
:1044D0002C22AA5CA2422FD03B191B01F318DB7BD4
:1044E000002C04D0B27A022A41D0012C06D08D22B1
:1044F0005200B25C022A43D0022C05D02A4AB25C98
:10450000022A43D0032C03D0284AB25C022A42D0AC
:10451000032B0DD8264D9B00585905F04BFE002269
:104520003C1924013619F37B9B005A510423F37381
:10453000C0BCB946B046F8BD41464846AA6A98474D
:1045400000236B62C8E741464846EA699847002362
:10455000AB61BAE7414648462A6998470023EB60B9
:10456000ACE748466A68984700232B60A0E7F27BD7
:104570009A42BAD104233C1924013619F373D7E7C0
:104580002022FF32B25C9A42B6D1F3E7094AB25C0C
:104590009A42B7D1EEE7084AB25C9A42B8D1E9E74D
:1045A00020580020585800202A0200003A0300003A
:1045B000105800202F0200003F030000F0B5DE4637
:1045C0004E46574645468346E0B5030187B04F4AFD
:1045D00001935B441B01D618F27A012A00D992E0BC
:1045E0004B4992008C58002C00D17FE010331D0005
:1045F000464B9C466544280048F074F9A0221230CE
:1046000081B29200362000F0CDFE8146002866D0AF
:1046100003AC0C220021200012F084FB3089FFF74C
:104620002DFF01232080A3700C22FF332100484678
:10463000A38001F075F9374B0C269A464F46013D91
:104640006B1C98466B78002445462E2B06D156E00D
:104650006B7801340135E4B22E2B01D0002BF7D159
:104660004346EB1A9BB299462300F318534542DCAC
:1046700022003100380001F007FA731C4A469BB251
:1046800034194146380001F087F9A3B22A785E1C3C
:10469000B6B2002AD4D11C003100380001F0F4F980
:1046A0001D4B02340422029302A9A3B2380001F088
:1046B00073F9164A019B944615495B441B016344F8
:1046C0008C46DA7ADB7B15499B009200585862448D
:1046D0003523390005F0F8FC380000F0C5FF07B0BD
:1046E000F0BCBB46B246A946A046F0BD0021FFF78C
:1046F000CBFEB472F3E7380000F0B6FFEFE700221C
:1047000000239146B1E7064810F0DAFA5858002025
:1047100050580020FEFF000000010001105800204A
:10472000F87305107047C04682B0012801D902B065
:1047300070478000002903D00A68044BC250F6E796
:10474000034A024B12680192C250F0E75058002011
:10475000B88C0510F0B546464F46D646464BC0B518
:10476000464E8D273400002598467F00A37A022B01
:1047700035D02CD8002B1FD0414B9946414B9A463F
:10478000FDF7B8FCB37A80B2022B40D0F35D022B68
:1047900043D04B46F35C022B48D05346F35C022BCC
:1047A0004DD002230122A37200232081E37228004E
:1047B00022736373FFF702FF01351134EDB2FF344A
:1047C000042DD3D1E0BCBA46B146A846F0BD032BB8
:1047D0004ED12368002B13D10023A372ECE7237B77
:1047E000013BDBB22373002BE6D1637B0133DBB2E9
:1047F0006373042B29D023732800FFF7DFFEDBE768
:10480000013B2360002BD7D10023A372D4E7338967
:104810008342B5D0F35D022BBBD11733FF33F35A7C
:104820008342ADD04B46F35C022BB6D18A239B006A
:10483000F35A8342A4D05346F35C022BB1D1CE236A
:104840009B00F35A8342ACD19AE7E37A002B08D15C
:1048500042465268002A04D001226373E272227336
:10486000CAE700212800FFF70FFE0023A372A3E789
:10487000054810F025FAC04650580020585800202E
:104880002A0200003A0300002C740510F0B583B032
:104890006B469C1D0023238001331E0006401842F6
:1048A00005D0002903DD037801396370013003224C
:1048B00013000340104205D00023012938DD03888E
:1048C0000239023007294BDD083907220F009743D0
:1048D000020005000832BF182A689A189A429B41C4
:1048E0005B42D2186B680835D3189342924152420A
:1048F0009B18AF42F0D1CA08551CD200ED00891AAE
:104900001A044019120C1B0C9B18012910DD028897
:104910009B188A1E012A05DD45885B19052901DDE2
:1049200081885B1851084D1C6D0049004019511ACF
:10493000012901D1027822702288D218130C1204A6
:10494000120C9B18180C1B041B0CC018002E04D052
:10495000030600041B0C000E184380B203B0F0BD28
:104960001A00D0E7F0B54F46D6464646C0B5914648
:104970001A68089B8A46196804000B041B0C090C72
:104980005B181104090C5918130C5B18180C1B0444
:104990001B0CC318180C1B041F0CC719002C21D0AA
:1049A000FF2300260125984661896068FFF76EFFA6
:1049B000C019030C0004070CDF1963891D4207D0DE
:1049C00042463B06380A1B0C104003431F006E4052
:1049D0002468002CE8D1002E04D03B063F041B0CB9
:1049E0003F0E1F43534698B2FFF748FD0400484668
:1049F000FFF744FD2018C019030C0004000C181820
:104A0000030C0004000C1818C04380B2E0BCBA4686
:104A1000B146A846F0BDC04610B582B0049C0094D3
:104A2000FFF7A0FF02B010BD10B5FFF72FFFC04386
:104A300080B210BDF0B5C646040000B500282AD0EB
:104A4000FF23002600270125984661896068FFF74B
:104A50001DFFC019030C0004070CDF1963891D42F8
:104A600007D042463B06380A1B0C104003431F0088
:104A70006E402468002CE8D1002E09D03B06380493
:104A80001B0C000E1843C04380B280BCB846F0BD7A
:104A9000F84380B2F9E70148F7E7C046FFFF00009E
:104AA00003220A4B002103339343094A0948136048
:104AB000FA22120119719918016001201A60087117
:104AC00005499950054A13607047C04688FA00208E
:104AD00080FA002084FA0020A00FA00FD4600020EC
:104AE000F0B5D6464F464646C0B500285DD0830790
:104AF00000D069E00300394A083B12689A4260D846
:104B000037490C30096881425BD31879002861D09D
:104B1000FA201D88000185420CD85C88A246844298
:104B200008D8981A80B280461619A04205D030885D
:104B3000404502D02B4810F0C3F85019814202D0F2
:104B400044884445F6D100241C71274CA4462468AF
:104B50009C4202D9644623601C00994237D98342A3
:104B600013D00779002F10D181420ED0A04224D05B
:104B700005881D800188FA200001814205D0404649
:104B80005118488059888A465618B3420DD0317959
:104B900000290AD1A3420DD0FA2135801B880901D2
:104BA0008B4202D0D31852465A80E0BCBA46B14676
:104BB000A846F0BD61460E60EEE761461C000B6042
:104BC000D6E70A4810F07CF8094810F079F809484F
:104BD00010F076F8084810F073F8C04680FA00200C
:104BE00084FA0020B4740510D4600020707405109D
:104BF0004C740510E87405108C740510F0B5C646A9
:104C00003B4BCA1C00B513400B2B3FD9FA221201B3
:104C100093423ED899423CD8364A146884425ED8C2
:104C2000354A126882425AD90500083D291B8AB2CA
:104C300090462E8841463200083A521A92B29A4261
:104C400050D320D0A7193979002924D1FA22120192
:104C500096424AD03A88294E9446424608329B18DA
:104C600032689BB2BA4237D0E218614611804146A1
:104C700000265180FA2116712B80128809018A4280
:104C800001D0A218538080BCB846F0BD0C239942D5
:104C9000C2D90020F7E71F001437BFB2BA42F2D3DF
:104CA000424608329B18FA229BB2120196421CD04F
:104CB000124FE2183968914200D93A604146002704
:104CC0005180FA21177116802B80128809018A42BF
:104CD000D9D0A4186380D6E7E2183260C5E7084847
:104CE0000FF0EEFF07480FF0EBFF07480FF0E8FF6B
:104CF000FCFF000080FA002084FA0020D46000202D
:104D0000047505101C7505103C750510F0B5D646E8
:104D10004F464646C0B500282FD03D4CC31C1C4012
:104D20000B2C30D9FA231B019C4226D8A04224D850
:104D3000384BFA229C461B6812019A46364B121BCE
:104D40001E6853469B1B98B21B0490461B0C9A424C
:104D500013D908277F4208E01588FB1A5B19A34284
:104D600013D22B002800434507D2F21811790029ED
:104D7000F2D0108803004345F7D30020E0BCBA46C8
:104D8000B146A846F0BD0C24D0E71427B846A0448D
:104D90004746BFB2BB421CD2012308341371A4B2F0
:104DA0001E4B1868130092450ED0A418A0422CD3B5
:104DB000100008309307E1D019480FF081FF1B88DD
:104DC000F318197900291AD09842F8D1634618606F
:104DD000EBE7FA270834A4B203193F019BB2B946A6
:104DE000BB420FD0F718397101213D8078801380C4
:104DF000117139884945D3D071184B80D0E761468D
:104E00000B60D2E707480FF05BFF07480FF058FF31
:104E1000FCFF0000D460002080FA002084FA00200B
:104E2000807505103C75051050750510242300226F
:104E3000F0B54746CE46904699460332042594463F
:104E400080B5124F124B134CB94441463A68216069
:104E5000614603338B43002D0BD0168800210022BE
:104E600000E0030001321960981919002360AA427A
:104E7000F7DB0437B94504D03A689468536855881D
:104E8000E3E7C0BCB946B046F0BDC0467476051035
:104E900014F200203CFA002010B5082810D80B4B63
:104EA0008000C458FCF766FDA3681C68002C03D082
:104EB00022681A60A30705D1FCF75EFD200010BD33
:104EC0000024FBE702480FF0FBFEC0467476051095
:104ED000C475051070B50C0008280ED800290CD038
:104EE000084B8000C5588B0708D1FCF743FDAB6821
:104EF0001A6822601C60FCF73FFD70BD02480FF08D
:104F0000DFFEC04674760510E87505100C2040429F
:104F10007047C04670B505000C00160082B000292D
:104F20002AD043680A689A4201D102B070BD33604A
:104F3000300001A9019201F04FFE300001A905F0F7
:104F400065F901A9300000F025FE392322686A6066
:104F5000E95C343B0B40052B05D0EB69002BE4D01A
:104F600028009847E1E7002AF7D00B07F5D528007D
:104F7000291D09F0DFF9F0E701480FF0A1FEC04656
:104F8000987605107047C046F0B5C64600B50400D7
:104F90000E001700984682B000286AD0099B002BAB
:104FA00067D0002900D174E0002F00D16FE04346A4
:104FB000002B69D03F4B002563610022392320007C
:104FC0006560A560E56025860021E2542830042252
:104FD00011F0A8FE089BE56163623C232562364D13
:104FE0002A78E2540A9B23613368002B3AD13100BE
:104FF000200001AAFFF78EFF0122A168E0683B684C
:10500000994200D0A36043461B68984200D0E360F9
:10501000002A33D02000099B9847002829D1274B2C
:105020003C2698461F683C23E05C00239C46FF28F2
:1050300002D163460020A355002F2CD0BC4236D0AD
:105040003B00FF2207E01B68002B24D09C422ED09F
:10505000013A002A0AD0995D8142F4D10130C0B2F0
:10506000A055E4E7002000210022C8E714480FF013
:1050700027FE002002B080BCB846F0BD3100200001
:1050800001AAFFF747FFC5E70E4B984692E70D4F81
:105090008DE70C4E88E7FE2807D00130C0B24346AA
:1050A0002870276020001C60E4E70020F7E706482E
:1050B0000FF006FE0D4F0010EC0B01205CFA0020F3
:1050C000BC760510B88C0510A8760510F0B5040064
:1050D0000D0016001F0083B000294ED0002E4AD0CC
:1050E000002F46D02B680022002B0CD03368A1681B
:1050F0008B4200D0A3603B68E1688B4230D1002A2C
:1051000031D003B0F0BD616801220029EED06846BD
:10511000009101A9019301F05FFD684601A905F026
:1051200075F801A9684600F035FD39232A686260E8
:10513000E15C343B0B40052B07D1002A05D00B075F
:1051400003D52000211D09F0F5F8E369002B01D0FB
:10515000200098473368A16801228B42CBD0C9E771
:10516000E360002ACDD16A4629002000FFF7D2FE75
:10517000C7E7034FB6E7024EB2E7014DAEE7C046C0
:10518000B88C051070B5041E16D04368002B17D1DB
:1051900039220121A35C194224D11D4B1A68A24275
:1051A0002ED01C4A1368A34204D126E01A68A242FA
:1051B00003D01300002BF9D170BD22681A60FBE701
:1051C000051D0021280001F007FD0021280005F041
:1051D0001DF80021280000F0DDFC39220121A35C2C
:1051E0001942DAD018008843A0541B070BD4E36996
:1051F000002BD2D020009847CFE723681360DBE76D
:1052000000221A60CDE7200008F0F2FCEFE7C0466C
:1052100058FA00205CFA0020014B18607047C04625
:1052200058FA002070B5041E15D03925435DDA0701
:1052300011D401221343DBB24355C269002A01D0C5
:105240009047635D05221A40052A04D16268002A4E
:1052500001D01B0700D470BD2000211D09F06AF8A1
:10526000F9E7C04670B5041E03D03925435D5A07DF
:1052700000D570BD04221343435505F07DFF05237F
:10528000625D1340052B05D0236A002BF1D020006E
:105290009847EEE76368002BF6D01307F4D520009B
:1052A000211D09F047F8EFE710B500280AD0392290
:1052B0000421835C194205D08B438354036A002B7D
:1052C00000D0984710BDC046021E0ED0084B18688B
:1052D000002809D03C2102E00068002804D0435C8B
:1052E0000133DBB29342F7D170470020FCE7C046A0
:1052F0005CFA0020F8B505000026002826D00F270C
:105300000BE0012B24D0002B2AD12800FFF7E8FB6B
:105310000136F6B2002C19D02500FCF72BFBAC7B34
:10532000002C1AD0013CE4B2AC73FCF725FB002C36
:105330000CD12B7B2C683B40022BE2D129000820AA
:105340000136FFF7C7FDF6B2002CE5D13000F8BDFD
:1053500029000720FFF7BEFDDAE703480FF0B0FC95
:1053600002480FF0ADFCC046EC760510047705103E
:1053700010B5FCF7FFFA0022084B1A70FCF7FCFA94
:10538000074B1868002803D107E0C068002804D044
:10539000436F002BF9D001F06DFC10BDEE0B012026
:1053A0008C0B0120F0B5C1234F464646D6468046B9
:1053B000C0B50D00170084B25B009A423FD008D8F8
:1053C0001400433BFF3B9C43012C6AD03C480FF048
:1053D00077FCA0239B009A42F8D1E31C0324CA1C4B
:1053E000A343A2439B189BB21800103080B2934293
:1053F0001ED382421CD8FFF789FC061E19D0002359
:1054000003604346C71813372E4B2904A7430D43A7
:1054100047608560C3600CE0FCF7ACFA01222A4BC0
:105420001A70FCF7A9FA002E02D03000FFF762FFD5
:1054300000263000E0BCBA46B146A846F0BD0023C5
:105440009846224B00269A4600230327994607E0F8
:1054500043466D1AADB21860002DEAD08046002494
:105460000820FFF719FD0028D6D05246E31CBB43A5
:10547000D31A1A1C9BB2AB4200D92A1C4B46041902
:1054800003601334124BBC4391B2446005814281E6
:10549000C360002EDCD16D1AADB20600002DDDD147
:1054A000C7E70720FFF7F8FC061EC2D00023290437
:1054B0000D4303604360856007734373C481B8E79D
:1054C0001877051080000100EE0B0120EC050000AC
:1054D0008200010070B5041E34D002898A421CD9B2
:1054E0000D008A1A07E023896D1A9B18238124680E
:1054F000ADB2002C20D06189A942F4D3237B1B07D5
:1055000001D1A9420AD1290420682943A1600028B9
:1055100001D0FFF7EFFE0023236070BD6368200019
:10552000191B691889B2FFF769FB002807D084426C
:10553000E9D006480FF0C4FB05480FF0C1FB054851
:105540000FF0BEFB04480FF0BBFBC0468077051090
:105550004C7705106477051034770510030070B59B
:10556000002820D08022520291421AD2002916D05F
:1055700002898CB2A21892B2944212D8057B012003
:105580007F2D0DD95D68691A1D001035A94207D31A
:1055900059605989002064185C811A8100E000205C
:1055A00070BD0120FCE701480FF08AFB9C770510D5
:1055B00010B5002818D080235B02994212D200292E
:1055C0000ED043898AB29A420CD844689B1AA446EA
:1055D0004381038961449A1A41600281002010BD11
:1055E0000020FCE70120FAE701480FF069FBC04604
:1055F0009C77051010B5002915DB00282FD0002955
:1056000023D003898AB2D3189BB29A4225D8047B4F
:105610007F2C1CD84468611A41604189038152186B
:105620004281002010BD002819D0494243898AB226
:105630009A4212D844689B1AA44643810389614464
:105640009A1A416002810020ECE70020EAE74468F2
:10565000611A04001034A142DED20120E2E70148C1
:105660000FF02EFB9C77051010B5002802D0FFF735
:1056700041FE10BD01480FF023FBC0469C7705108A
:1056800003000020002B04D01B68013080B2002BE7
:10569000FAD1704710B5041E09D0FCF76BF9A37B53
:1056A0000133A373FCF768F9A37B002B00D010BD76
:1056B00001480FF005FBC046A877051010B500287B
:1056C00014D0002912D00368002B07D002890C895E
:1056D0001219028118001B68002BF7D10289438937
:1056E000934204D10A8901609B18038110BD0148CF
:1056F0000FF0E6FABC77051010B50C0000281FD09B
:1057000000291CD00368002B07D002892189521878
:10571000028118001B68002BF7D10289438993424C
:1057200014D1228904609B180381FCF723F9A37B21
:105730000133A373FCF720F9A37B002B03D010BD2A
:105740000029FCD0F1E703480FF0BAFA02480FF045
:10575000B7FAC046A8770510BC770510F0B54F46DC
:10576000D64646468146C0B5884692461F00002967
:1057700000D184E00B89934200D280E0002800D160
:105780007DE053460289FB189A4200DA77E0002652
:1057900044890CE043465A891B899A423DD04B46C6
:1057A0005C891B899C424DD05346002B57D0434601
:1057B0005B89E41B9B1B9C4200D91C005546A245FB
:1057C00000D925004B465B682A00D81943465B6820
:1057D0007F19991911F0ACFA534676195D1BABB2DB
:1057E0009A464B465C89BC424CD343465B89B342E4
:1057F0004BD305D143461B6800269846002B17D093
:10580000BC42C7D14B461B689946002B1FD043466C
:105810005A891B8900279A42C1D143461B68002B35
:10582000BDD006204042E0BCBA46B146A846F0BD15
:105830005346002B23D1BC4219D04B461B899C42B6
:105840000DD100264B461B68002BADD0E9E753462F
:10585000002B14D143461A895B899A4201D000205B
:10586000E1E743461B68002BDBD10020DBE74B461A
:105870001B689946002BF2D000275C89DDE71020D9
:105880004042D0E702480FF01BFA02480FF018FA26
:10589000EC7705100478051010B5002904D000231A
:1058A0000A89FFF75BFF10BD10204042FBE7C046AE
:1058B000F0B5C6460500884616001900002700B559
:1058C000002828D04346002B25D0002A05D122E00D
:1058D0002D68091B89B2002D1DD06C89002901D0CB
:1058E000A142F5D2641AA4B2321CA64200D9221CED
:1058F0004346D8196B6894B29C46361B220061441B
:10590000E719B6B211F014FABFB22D68002E02D01A
:105910000021002DE1D1380080BCB846F0BDC04662
:10592000F8B5CE46474605008846914680B5002822
:1059300024D0002922D0038993421CD316000027CB
:10594000002A02D112E0002D1BD06C89B44200D98C
:10595000340043466868D919220011F0E9F9361B72
:105960002D683F19002EEED1B9450DD10020C0BCE5
:10597000B946B046F8BD01204042F8E71020404249
:10598000F5E703480FF09CF902480FF099F9C0467B
:105990002078051038780510F0B5D6464F464646B3
:1059A00004008A46C0B5002805D13AE024685B1B94
:1059B0009BB2002C35D065899D42F7D921899F186B
:1059C000B9422EDBE91A8A4232DD8AB29046626819
:1059D0005146D0187D1B424611F0AAF9ABB2994648
:1059E000002B1CD02568002D29D02B894B4518D3BE
:1059F0004F46002601E0002D24D06C89BC4200D91E
:105A00003C004346F11868682200514411F090F9B7
:105A10003F1B2D683619002FEDD1B14515D100205F
:105A200001E001204042E0BCBA46B146A846F0BDC4
:105A300060685146C01811F07BF90020F3E7102090
:105A40004042F0E702480FF03BF902480FF038F906
:105A500020780510387805100B0070B515001189F5
:105A60001A00FFF79FFC041E06D0002329002A8994
:105A7000FFF774FE002801D1200070BD01480FF02F
:105A80001FF9C0465078051005E043898B4205D8C0
:105A9000C91A006889B20028F7D1704743685A5480
:105AA000FBE7C046F0B5DE46454657464E468146C2
:105AB000E0B5344F83B03968786909F0A9FD4B46E9
:105AC0005A68314B80461C689B460020557A002C52
:105AD0003AD00026844604E0E3682600002B32D04A
